{
  "contractName": "Adoption",
  "abi": [
    {
      "constant": true,
      "inputs": [
        {
          "internalType": "uint256",
          "name": "",
          "type": "uint256"
        }
      ],
      "name": "adopters",
      "outputs": [
        {
          "internalType": "address",
          "name": "",
          "type": "address"
        }
      ],
      "payable": false,
      "stateMutability": "view",
      "type": "function"
    },
    {
      "constant": true,
      "inputs": [
        {
          "internalType": "uint256",
          "name": "",
          "type": "uint256"
        },
        {
          "internalType": "uint256",
          "name": "",
          "type": "uint256"
        }
      ],
      "name": "petAdoptionHistory",
      "outputs": [
        {
          "internalType": "address",
          "name": "user",
          "type": "address"
        },
        {
          "internalType": "uint256",
          "name": "timestamp",
          "type": "uint256"
        },
        {
          "internalType": "address",
          "name": "transactionOrigin",
          "type": "address"
        },
        {
          "internalType": "uint256",
          "name": "action",
          "type": "uint256"
        }
      ],
      "payable": false,
      "stateMutability": "view",
      "type": "function"
    },
    {
      "constant": false,
      "inputs": [
        {
          "internalType": "uint256",
          "name": "petId",
          "type": "uint256"
        }
      ],
      "name": "adopt",
      "outputs": [
        {
          "internalType": "uint256",
          "name": "",
          "type": "uint256"
        }
      ],
      "payable": false,
      "stateMutability": "nonpayable",
      "type": "function"
    },
    {
      "constant": false,
      "inputs": [
        {
          "internalType": "uint256",
          "name": "petId",
          "type": "uint256"
        }
      ],
      "name": "returnPet",
      "outputs": [
        {
          "internalType": "uint256",
          "name": "",
          "type": "uint256"
        }
      ],
      "payable": false,
      "stateMutability": "nonpayable",
      "type": "function"
    },
    {
      "constant": true,
      "inputs": [],
      "name": "getAdopters",
      "outputs": [
        {
          "internalType": "address[16]",
          "name": "",
          "type": "address[16]"
        }
      ],
      "payable": false,
      "stateMutability": "view",
      "type": "function"
    },
    {
      "constant": true,
      "inputs": [
        {
          "internalType": "uint256",
          "name": "petId",
          "type": "uint256"
        }
      ],
      "name": "getPetAdoptionHistory",
      "outputs": [
        {
          "internalType": "address[]",
          "name": "users",
          "type": "address[]"
        },
        {
          "internalType": "uint256[]",
          "name": "timestamps",
          "type": "uint256[]"
        },
        {
          "internalType": "address[]",
          "name": "transactionOrigins",
          "type": "address[]"
        },
        {
          "internalType": "uint256[]",
          "name": "actions",
          "type": "uint256[]"
        }
      ],
      "payable": false,
      "stateMutability": "view",
      "type": "function"
    }
  ],
  "bytecode": "0x608060405234801561001057600080fd5b50610bc0806100206000396000f3fe608060405234801561001057600080fd5b50600436106100625760003560e01c80633de4eb171461006757806343ae80d3146100ad5780638588b2c51461011b578063a9dae8051461015d578063bdb92e8e146102b8578063e4e97747146102fa575b600080fd5b61006f6103b3565b6040518082601060200280838360005b8381101561009a57808201518184015260208101905061007f565b5050505090500191505060405180910390f35b6100d9600480360360208110156100c357600080fd5b8101908080359060200190929190505050610434565b604051808273ffffffffffffffffffffffffffffffffffffffff1673ffffffffffffffffffffffffffffffffffffffff16815260200191505060405180910390f35b6101476004803603602081101561013157600080fd5b8101908080359060200190929190505050610467565b6040518082815260200191505060405180910390f35b6101896004803603602081101561017357600080fd5b8101908080359060200190929190505050610609565b6040518080602001806020018060200180602001858103855289818151815260200191508051906020019060200280838360005b838110156101d85780820151818401526020810190506101bd565b50505050905001858103845288818151815260200191508051906020019060200280838360005b8381101561021a5780820151818401526020810190506101ff565b50505050905001858103835287818151815260200191508051906020019060200280838360005b8381101561025c578082015181840152602081019050610241565b50505050905001858103825286818151815260200191508051906020019060200280838360005b8381101561029e578082015181840152602081019050610283565b505050509050019850505050505050505060405180910390f35b6102e4600480360360208110156102ce57600080fd5b81019080803590602001909291905050506108e8565b6040518082815260200191505060405180910390f35b6103306004803603604081101561031057600080fd5b810190808035906020019092919080359060200190929190505050610a8a565b604051808573ffffffffffffffffffffffffffffffffffffffff1673ffffffffffffffffffffffffffffffffffffffff1681526020018481526020018373ffffffffffffffffffffffffffffffffffffffff1673ffffffffffffffffffffffffffffffffffffffff16815260200182815260200194505050505060405180910390f35b6103bb610b14565b600060108060200260405190810160405280929190826010801561042a576020028201915b8160009054906101000a900473ffffffffffffffffffffffffffffffffffffffff1673ffffffffffffffffffffffffffffffffffffffff16815260200190600101908083116103e0575b5050505050905090565b6000816010811061044157fe5b016000915054906101000a900473ffffffffffffffffffffffffffffffffffffffff1681565b600080821015801561047a5750600f8211155b61048357600080fd5b336000836010811061049157fe5b0160006101000a81548173ffffffffffffffffffffffffffffffffffffffff021916908373ffffffffffffffffffffffffffffffffffffffff1602179055506010600083815260200190815260200160002060405180608001604052803373ffffffffffffffffffffffffffffffffffffffff1681526020014281526020013273ffffffffffffffffffffffffffffffffffffffff16815260200160008152509080600181540180825580915050906001820390600052602060002090600402016000909192909190915060008201518160000160006101000a81548173ffffffffffffffffffffffffffffffffffffffff021916908373ffffffffffffffffffffffffffffffffffffffff1602179055506020820151816001015560408201518160020160006101000a81548173ffffffffffffffffffffffffffffffffffffffff021916908373ffffffffffffffffffffffffffffffffffffffff16021790555060608201518160030155505050819050919050565b606080606080600060106000878152602001908152602001600020805490509050806040519080825280602002602001820160405280156106595781602001602082028038833980820191505090505b5094508060405190808252806020026020018201604052801561068b5781602001602082028038833980820191505090505b509350806040519080825280602002602001820160405280156106bd5781602001602082028038833980820191505090505b509250806040519080825280602002602001820160405280156106ef5781602001602082028038833980820191505090505b50915060008090505b818110156108df57610708610b37565b60106000898152602001908152602001600020828154811061072657fe5b90600052602060002090600402016040518060800160405290816000820160009054906101000a900473ffffffffffffffffffffffffffffffffffffffff1673ffffffffffffffffffffffffffffffffffffffff1673ffffffffffffffffffffffffffffffffffffffff168152602001600182015481526020016002820160009054906101000a900473ffffffffffffffffffffffffffffffffffffffff1673ffffffffffffffffffffffffffffffffffffffff1673ffffffffffffffffffffffffffffffffffffffff1681526020016003820154815250509050806000015187838151811061081257fe5b602002602001019073ffffffffffffffffffffffffffffffffffffffff16908173ffffffffffffffffffffffffffffffffffffffff1681525050806020015186838151811061085d57fe5b602002602001018181525050806040015185838151811061087a57fe5b602002602001019073ffffffffffffffffffffffffffffffffffffffff16908173ffffffffffffffffffffffffffffffffffffffff168152505080606001518483815181106108c557fe5b6020026020010181815250505080806001019150506106f8565b50509193509193565b60008082101580156108fb5750600f8211155b61090457600080fd5b600080836010811061091257fe5b0160006101000a81548173ffffffffffffffffffffffffffffffffffffffff021916908373ffffffffffffffffffffffffffffffffffffffff1602179055506010600083815260200190815260200160002060405180608001604052803373ffffffffffffffffffffffffffffffffffffffff1681526020014281526020013273ffffffffffffffffffffffffffffffffffffffff16815260200160018152509080600181540180825580915050906001820390600052602060002090600402016000909192909190915060008201518160000160006101000a81548173ffffffffffffffffffffffffffffffffffffffff021916908373ffffffffffffffffffffffffffffffffffffffff1602179055506020820151816001015560408201518160020160006101000a81548173ffffffffffffffffffffffffffffffffffffffff021916908373ffffffffffffffffffffffffffffffffffffffff16021790555060608201518160030155505050819050919050565b60106020528160005260406000208181548110610aa357fe5b9060005260206000209060040201600091509150508060000160009054906101000a900473ffffffffffffffffffffffffffffffffffffffff16908060010154908060020160009054906101000a900473ffffffffffffffffffffffffffffffffffffffff16908060030154905084565b604051806102000160405280601090602082028038833980820191505090505090565b6040518060800160405280600073ffffffffffffffffffffffffffffffffffffffff16815260200160008152602001600073ffffffffffffffffffffffffffffffffffffffff16815260200160008152509056fea265627a7a72315820a1a8d6bc9d7b0f1498ff2abc6bea68f0d5344d69a8a3bcd6d66bdb600465c37664736f6c63430005100032",
  "source": "pragma solidity ^0.5.0;\n\ncontract Adoption {\n    address[16] public adopters;\n    struct AdoptionDetails {\n        address user;\n        uint256 timestamp;\n        address transactionOrigin; \n        uint action; // 0 for adoption, 1 for return\n    }\n    mapping(uint => AdoptionDetails[]) public petAdoptionHistory;\n\n    // Adopting a pet\n    function adopt(uint petId) public returns (uint) {\n        require(petId >= 0 && petId <= 15);\n\n        adopters[petId] = msg.sender;\n        petAdoptionHistory[petId].push(AdoptionDetails({\n            user: msg.sender,\n            timestamp: block.timestamp,\n            transactionOrigin: tx.origin,\n            action: 0 // 0 represents adoption\n        }));\n\n        return petId;\n    }\n\n    // Returning a pet\n    function returnPet(uint petId) public returns (uint) {\n        require(petId >= 0 && petId <= 15);\n\n        adopters[petId] = address(0);\n        petAdoptionHistory[petId].push(AdoptionDetails({\n            user: msg.sender,\n            timestamp: block.timestamp,\n            transactionOrigin: tx.origin,\n            action: 1 // 1 represents return\n        }));\n\n        return petId;\n    }\n\n    // Retrieving the adopters\n    function getAdopters() public view returns (address[16] memory) {\n        return adopters;\n    }\n\n    // Get adoption history of a pet\n    function getPetAdoptionHistory(uint petId) \n            public \n            view \n            returns (\n                address[] memory users, \n                uint256[] memory timestamps, \n                address[] memory transactionOrigins, \n                uint[] memory actions\n            ) \n        {\n            uint length = petAdoptionHistory[petId].length;\n            users = new address[](length);\n            timestamps = new uint256[](length);\n            transactionOrigins = new address[](length);\n            actions = new uint[](length);\n\n            for (uint i = 0; i < length; i++) {\n                AdoptionDetails memory details = petAdoptionHistory[petId][i];\n                users[i] = details.user;\n                timestamps[i] = details.timestamp;\n                transactionOrigins[i] = details.transactionOrigin;\n                actions[i] = details.action;\n            }\n        }    \n}\n\ncontract Election {\n    // Model a Candidate\n    struct Candidate {\n        uint id;\n        string name;\n        uint voteCount;\n    }\n\n    // Store accounts that have voted\n    mapping(address => bool) public voters;\n    // Store Candidates\n    // Fetch Candidate\n    mapping(uint => Candidate) public candidates;\n    // Store Candidates Count\n    uint public candidatesCount;\n\n    // voted event\n    event votedEvent (\n        uint indexed _candidateId\n    );\n\n    constructor () public {\n        addCandidate(\"Frieda\");\n        addCandidate(\"Gina\");\n        addCandidate(\"Collins\");\n        addCandidate(\"Melissa\");\n        addCandidate(\"Jeanine\");\n        addCandidate(\"Elvia\");\n        addCandidate(\"Latisha\");\n        addCandidate(\"Coleman\");\n        addCandidate(\"Nichole\");\n        addCandidate(\"Fran\");\n        addCandidate(\"Leonor\");\n        addCandidate(\"Dean\");\n        addCandidate(\"Stevenson\");\n        addCandidate(\"Kristina\");\n        addCandidate(\"Ethel\");\n        addCandidate(\"Terry\");\n    }\n\n    function addCandidate (string memory _name) private {\n        candidatesCount ++;\n        candidates[candidatesCount] = Candidate(candidatesCount, _name, 0);\n    }\n\n    function vote (uint _candidateId) public {\n        // require that they haven't voted before\n        require(!voters[msg.sender]);\n\n        // require a valid candidate\n        require(_candidateId > 0 && _candidateId <= candidatesCount);\n\n        // record that voter has voted\n        voters[msg.sender] = true;\n\n        // update candidate vote Count\n        candidates[_candidateId].voteCount ++;\n\n        // trigger voted event\n        emit votedEvent(_candidateId);\n    }\n}\n\ncontract SendMeEther {\n    \n    string public functionCalled;\n    \n    //constructor of the contract SendMeEther\n    constructor() public {\n\tfunctionCalled = \"constructor\";\n    }\n\n    //function allowing an ether payment to the contract address\n    function receiveEther() external payable {\n\tfunctionCalled = \"receiveEther\";\n    }\n\n    //fallback function allowing an ether payment to the contract address \n    function() external payable {\n\tfunctionCalled = \"fallback\";\n    }\n\n} \n\n\n\n",
  "sourcePath": "C:/Users/User/Desktop/aps1050/Github Project/pet-shop-box-enhancements-main/contracts/Contracts.sol",
  "compiler": {
    "name": "solc",
    "version": "0.5.16+commit.9c3226ce.Emscripten.clang"
  },
  "schemaVersion": "3.0.22",
  "updatedAt": "2023-11-29T15:31:15.252Z",
  "networkType": "ethereum",
  "devdoc": {
    "methods": {}
  },
  "userdoc": {
    "methods": {}
  }
}