{
  "contractName": "Election",
  "abi": [
    {
      "inputs": [],
      "payable": false,
      "stateMutability": "nonpayable",
      "type": "constructor"
    },
    {
      "anonymous": false,
      "inputs": [
        {
          "indexed": true,
          "internalType": "uint256",
          "name": "_candidateId",
          "type": "uint256"
        }
      ],
      "name": "votedEvent",
      "type": "event"
    },
    {
      "constant": true,
      "inputs": [
        {
          "internalType": "uint256",
          "name": "",
          "type": "uint256"
        }
      ],
      "name": "candidates",
      "outputs": [
        {
          "internalType": "uint256",
          "name": "id",
          "type": "uint256"
        },
        {
          "internalType": "string",
          "name": "name",
          "type": "string"
        },
        {
          "internalType": "uint256",
          "name": "voteCount",
          "type": "uint256"
        }
      ],
      "payable": false,
      "stateMutability": "view",
      "type": "function"
    },
    {
      "constant": true,
      "inputs": [],
      "name": "candidatesCount",
      "outputs": [
        {
          "internalType": "uint256",
          "name": "",
          "type": "uint256"
        }
      ],
      "payable": false,
      "stateMutability": "view",
      "type": "function"
    },
    {
      "constant": true,
      "inputs": [
        {
          "internalType": "address",
          "name": "",
          "type": "address"
        }
      ],
      "name": "voters",
      "outputs": [
        {
          "internalType": "bool",
          "name": "",
          "type": "bool"
        }
      ],
      "payable": false,
      "stateMutability": "view",
      "type": "function"
    },
    {
      "constant": false,
      "inputs": [
        {
          "internalType": "uint256",
          "name": "_candidateId",
          "type": "uint256"
        }
      ],
      "name": "vote",
      "outputs": [],
      "payable": false,
      "stateMutability": "nonpayable",
      "type": "function"
    }
  ],
  "bytecode": "0x608060405234801561001057600080fd5b506100556040518060400160405280600681526020017f467269656461000000000000000000000000000000000000000000000000000081525061045660201b60201c565b6100996040518060400160405280600481526020017f47696e610000000000000000000000000000000000000000000000000000000081525061045660201b60201c565b6100dd6040518060400160405280600781526020017f436f6c6c696e730000000000000000000000000000000000000000000000000081525061045660201b60201c565b6101216040518060400160405280600781526020017f4d656c697373610000000000000000000000000000000000000000000000000081525061045660201b60201c565b6101656040518060400160405280600781526020017f4a65616e696e650000000000000000000000000000000000000000000000000081525061045660201b60201c565b6101a96040518060400160405280600581526020017f456c76696100000000000000000000000000000000000000000000000000000081525061045660201b60201c565b6101ed6040518060400160405280600781526020017f4c6174697368610000000000000000000000000000000000000000000000000081525061045660201b60201c565b6102316040518060400160405280600781526020017f436f6c656d616e0000000000000000000000000000000000000000000000000081525061045660201b60201c565b6102756040518060400160405280600781526020017f4e6963686f6c650000000000000000000000000000000000000000000000000081525061045660201b60201c565b6102b96040518060400160405280600481526020017f4672616e0000000000000000000000000000000000000000000000000000000081525061045660201b60201c565b6102fd6040518060400160405280600681526020017f4c656f6e6f72000000000000000000000000000000000000000000000000000081525061045660201b60201c565b6103416040518060400160405280600481526020017f4465616e0000000000000000000000000000000000000000000000000000000081525061045660201b60201c565b6103856040518060400160405280600981526020017f53746576656e736f6e000000000000000000000000000000000000000000000081525061045660201b60201c565b6103c96040518060400160405280600881526020017f4b72697374696e6100000000000000000000000000000000000000000000000081525061045660201b60201c565b61040d6040518060400160405280600581526020017f457468656c00000000000000000000000000000000000000000000000000000081525061045660201b60201c565b6104516040518060400160405280600581526020017f546572727900000000000000000000000000000000000000000000000000000081525061045660201b60201c565b610577565b6002600081548092919060010191905055506040518060600160405280600254815260200182815260200160008152506001600060025481526020019081526020016000206000820151816000015560208201518160010190805190602001906104c19291906104d2565b506040820151816002015590505050565b828054600181600116156101000203166002900490600052602060002090601f016020900481019282601f1061051357805160ff1916838001178555610541565b82800160010185558215610541579182015b82811115610540578251825591602001919060010190610525565b5b50905061054e9190610552565b5090565b61057491905b80821115610570576000816000905550600101610558565b5090565b90565b6103e9806105866000396000f3fe608060405234801561001057600080fd5b506004361061004c5760003560e01c80630121b93f146100515780632d35a8a21461007f5780633477ee2e1461009d578063a3ec138d14610152575b600080fd5b61007d6004803603602081101561006757600080fd5b81019080803590602001909291905050506101ae565b005b6100876102cc565b6040518082815260200191505060405180910390f35b6100c9600480360360208110156100b357600080fd5b81019080803590602001909291905050506102d2565b6040518084815260200180602001838152602001828103825284818151815260200191508051906020019080838360005b838110156101155780820151818401526020810190506100fa565b50505050905090810190601f1680156101425780820380516001836020036101000a031916815260200191505b5094505050505060405180910390f35b6101946004803603602081101561016857600080fd5b81019080803573ffffffffffffffffffffffffffffffffffffffff169060200190929190505050610394565b604051808215151515815260200191505060405180910390f35b6000803373ffffffffffffffffffffffffffffffffffffffff1673ffffffffffffffffffffffffffffffffffffffff16815260200190815260200160002060009054906101000a900460ff161561020457600080fd5b60008111801561021657506002548111155b61021f57600080fd5b60016000803373ffffffffffffffffffffffffffffffffffffffff1673ffffffffffffffffffffffffffffffffffffffff16815260200190815260200160002060006101000a81548160ff0219169083151502179055506001600082815260200190815260200160002060020160008154809291906001019190505550807ffff3c900d938d21d0990d786e819f29b8d05c1ef587b462b939609625b684b1660405160405180910390a250565b60025481565b6001602052806000526040600020600091509050806000015490806001018054600181600116156101000203166002900480601f0160208091040260200160405190810160405280929190818152602001828054600181600116156101000203166002900480156103845780601f1061035957610100808354040283529160200191610384565b820191906000526020600020905b81548152906001019060200180831161036757829003601f168201915b5050505050908060020154905083565b60006020528060005260406000206000915054906101000a900460ff168156fea265627a7a72315820ecda2b702295c3e71521e1735b9c7a6b1f6953f05909ea5f6617fb2f264182d464736f6c63430005100032",
  "source": "pragma solidity ^0.5.0;\n\ncontract Adoption {\n    address[16] public adopters;\n    struct AdoptionDetails {\n        address user;\n        uint256 timestamp;\n        address transactionOrigin; \n        uint action; // 0 for adoption, 1 for return\n    }\n    mapping(uint => AdoptionDetails[]) public petAdoptionHistory;\n\n    // Adopting a pet\n    function adopt(uint petId) public returns (uint) {\n        require(petId >= 0 && petId <= 15);\n\n        adopters[petId] = msg.sender;\n        petAdoptionHistory[petId].push(AdoptionDetails({\n            user: msg.sender,\n            timestamp: block.timestamp,\n            transactionOrigin: tx.origin,\n            action: 0 // 0 represents adoption\n        }));\n\n        return petId;\n    }\n\n    // Returning a pet\n    function returnPet(uint petId) public returns (uint) {\n        require(petId >= 0 && petId <= 15);\n\n        adopters[petId] = address(0);\n        petAdoptionHistory[petId].push(AdoptionDetails({\n            user: msg.sender,\n            timestamp: block.timestamp,\n            transactionOrigin: tx.origin,\n            action: 1 // 1 represents return\n        }));\n\n        return petId;\n    }\n\n    // Retrieving the adopters\n    function getAdopters() public view returns (address[16] memory) {\n        return adopters;\n    }\n\n    // Get adoption history of a pet\n    function getPetAdoptionHistory(uint petId) \n            public \n            view \n            returns (\n                address[] memory users, \n                uint256[] memory timestamps, \n                address[] memory transactionOrigins, \n                uint[] memory actions\n            ) \n        {\n            uint length = petAdoptionHistory[petId].length;\n            users = new address[](length);\n            timestamps = new uint256[](length);\n            transactionOrigins = new address[](length);\n            actions = new uint[](length);\n\n            for (uint i = 0; i < length; i++) {\n                AdoptionDetails memory details = petAdoptionHistory[petId][i];\n                users[i] = details.user;\n                timestamps[i] = details.timestamp;\n                transactionOrigins[i] = details.transactionOrigin;\n                actions[i] = details.action;\n            }\n        }    \n}\n\ncontract Election {\n    // Model a Candidate\n    struct Candidate {\n        uint id;\n        string name;\n        uint voteCount;\n    }\n\n    // Store accounts that have voted\n    mapping(address => bool) public voters;\n    // Store Candidates\n    // Fetch Candidate\n    mapping(uint => Candidate) public candidates;\n    // Store Candidates Count\n    uint public candidatesCount;\n\n    // voted event\n    event votedEvent (\n        uint indexed _candidateId\n    );\n\n    constructor () public {\n        addCandidate(\"Frieda\");\n        addCandidate(\"Gina\");\n        addCandidate(\"Collins\");\n        addCandidate(\"Melissa\");\n        addCandidate(\"Jeanine\");\n        addCandidate(\"Elvia\");\n        addCandidate(\"Latisha\");\n        addCandidate(\"Coleman\");\n        addCandidate(\"Nichole\");\n        addCandidate(\"Fran\");\n        addCandidate(\"Leonor\");\n        addCandidate(\"Dean\");\n        addCandidate(\"Stevenson\");\n        addCandidate(\"Kristina\");\n        addCandidate(\"Ethel\");\n        addCandidate(\"Terry\");\n    }\n\n    function addCandidate (string memory _name) private {\n        candidatesCount ++;\n        candidates[candidatesCount] = Candidate(candidatesCount, _name, 0);\n    }\n\n    function vote (uint _candidateId) public {\n        // require that they haven't voted before\n        require(!voters[msg.sender]);\n\n        // require a valid candidate\n        require(_candidateId > 0 && _candidateId <= candidatesCount);\n\n        // record that voter has voted\n        voters[msg.sender] = true;\n\n        // update candidate vote Count\n        candidates[_candidateId].voteCount ++;\n\n        // trigger voted event\n        emit votedEvent(_candidateId);\n    }\n}\n\ncontract SendMeEther {\n    \n    string public functionCalled;\n    \n    //constructor of the contract SendMeEther\n    constructor() public {\n\tfunctionCalled = \"constructor\";\n    }\n\n    //function allowing an ether payment to the contract address\n    function receiveEther() external payable {\n\tfunctionCalled = \"receiveEther\";\n    }\n\n    //fallback function allowing an ether payment to the contract address \n    function() external payable {\n\tfunctionCalled = \"fallback\";\n    }\n\n} \n\n\n\n",
  "sourcePath": "C:/Users/User/Desktop/aps1050/Github Project/pet-shop-box-enhancements-main/contracts/Contracts.sol",
  "compiler": {
    "name": "solc",
    "version": "0.5.16+commit.9c3226ce.Emscripten.clang"
  },
  "schemaVersion": "3.0.22",
  "updatedAt": "2023-11-29T15:31:15.257Z",
  "networkType": "ethereum",
  "devdoc": {
    "methods": {}
  },
  "userdoc": {
    "methods": {}
  }
}